:020000040800F2
:1000000000C00020913200085D3000086530000813
:100010006D300008753000087D30000800000000D9
:10002000000000000000000000000000B1DC00083B
:10003000853000080000000091DE0008D9DE0008CD
:10004000D9320008D9320008D9320008D932000864
:10005000D9320008D9320008913000089F300008DA
:10006000D9320008D9320008D9320008AD30000872
:10007000D9320008D9320008D9320008D932000834
:10008000D9320008D9320008D9320008D932000824
:10009000C1300008D9320008D9320008D93200082E
:1000A000D9320008D9320008D9320008D932000804
:1000B000D9320008D5300008E9300008D9320008EC
:1000C000D9320008D9320008D9320008D9320008E4
:1000D000D9320008D9320008D9320008D9320008D4
:1000E000D9320008D9320008D9320008D9320008C4
:1000F000D9320008D9320008D9320008D9320008B4
:10010000D9320008D9320008D9320008D9320008A3
:10011000D9320008D9320008D9320008D932000893
:10012000D9320008D9320008D9320008D932000883
:1001300000000000000000000000000000000000BF
:1001400000000000000000000000000000000000AF
:10015000000000000000000000000000000000009F
:10016000000000000000000000000000000000008F
:10017000000000000000000000000000000000007F
:10018000000000000000000000000000000000006F
:10019000000000000000000000000000000000005F
:1001A000000000000000000000000000000000004F
:1001B000000000000000000000000000000000003F
:1001C000000000000000000000000000000000002F
:1001D000000000000000000000000000000000001F
:0401E0005FF8E0F1F3
:1001F00010B5054C237833B9044B13B10448AFF361
:1002000000800123237010BD800700200000000043
:10021000086E010808B5034B1BB103490348AFF34F
:10022000008008BD0000000084070020086E01085F
:10023000034613F8012B002AFBD1181A0138704726
:1002400081F0004102E000BF83F0004330B54FEA87
:1002500041044FEA430594EA050F08BF90EA020FF4
:100260001FBF54EA000C55EA020C7FEA645C7FEA87
:10027000655C00F0E2804FEA5454D4EB5555B8BFAA
:100280006D420CDD2C4480EA020281EA030382EA1B
:10029000000083EA010180EA020281EA0303362DAD
:1002A00088BF30BD11F0004F4FEA01314FF4801C80
:1002B0004CEA113102D0404261EB410113F0004F92
:1002C0004FEA03334CEA133302D0524263EB430349
:1002D00094EA050F00F0A780A4F10104D5F1200EE7
:1002E0000DDB02FA0EFC22FA05F2801841F1000142
:1002F00003FA0EF2801843FA05F359410EE0A5F116
:1003000020050EF1200E012A03FA0EFC28BF4CF046
:10031000020C43FA05F3C01851EBE37101F00045FC
:1003200007D54FF0000EDCF1000C7EEB00006EEB09
:100330000101B1F5801F1BD3B1F5001F0CD3490893
:100340005FEA30004FEA3C0C04F101044FEA4452EA
:1003500012F5800F80F09A80BCF1004F08BF5FEA71
:10036000500C50F1000041EB045141EA050130BD51
:100370005FEA4C0C404141EB0101013C28BFB1F563
:10038000801FE9D291F0000F04BF01460020B1FAAE
:1003900081F308BF2033A3F10B03B3F120020CDA81
:1003A0000C3208DD02F1140CC2F10C0201FA0CF05F
:1003B00021FA02F10CE002F11402D8BFC2F1200CC4
:1003C00001FA02F120FA0CFCDCBF41EA0C0190407A
:1003D000E41AA2BF01EB0451294330BD6FEA0404C3
:1003E0001F3C1CDA0C340EDC04F11404C4F12002AE
:1003F00020FA04F001FA02F340EA030021FA04F3C0
:1004000045EA030130BDC4F10C04C4F1200220FA16
:1004100002F001FA04F340EA0300294630BD21FA54
:1004200004F0294630BD94F0000F83F4801306BF1A
:1004300081F480110134013D4EE77FEA645C18BF0E
:100440007FEA655C29D094EA050F08BF90EA020FA5
:1004500005D054EA000C04BF1946104630BD91EA9D
:10046000030F1EBF0021002030BD5FEA545C05D1A0
:100470004000494128BF41F0004130BD14F58004DF
:100480003CBF01F5801130BD01F0004545F0FE4153
:1004900041F470014FF0000030BD7FEA645C1ABF88
:1004A000194610467FEA655C1CBF0B46024650EABF
:1004B000013406BF52EA033591EA030F41F40021EB
:1004C00030BD00BF90F0000F04BF0021704730B571
:1004D0004FF4806404F132044FF000054FF0000146
:1004E00050E700BF90F0000F04BF0021704730B507
:1004F0004FF4806404F1320410F0004548BF4042DC
:100500004FF000013EE700BF42004FEAE2014FEA30
:1005100031014FEA02701FBF12F07F4393F07F4F0B
:1005200081F06051704732F07F4208BF704793F00E
:100530007F4F04BF41F40021704730B54FF4607421
:1005400001F0004521F000411CE700BF50EA010224
:1005500008BF704730B54FF000050AE050EA0102CD
:1005600008BF704730B511F0004502D5404261EB3D
:1005700041014FF4806404F132045FEA915C3FF47E
:10058000D8AE4FF003025FEADC0C18BF03325FEA1B
:10059000DC0C18BF033202EBDC02C2F1200300FACC
:1005A00003FC20FA02F001FA03FE40EA0E0021FAF1
:1005B00002F11444BDE600BF70B54FF0FF0C4CF4DF
:1005C000E06C1CEA11541DBF1CEA135594EA0C0F91
:1005D00095EA0C0F00F0DEF82C4481EA030621EACC
:1005E0004C5123EA4C5350EA013518BF52EA033507
:1005F00041F4801143F4801338D0A0FB02CE4FF0B9
:100600000005E1FB02E506F00042E0FB03E54FF0E8
:100610000006E1FB03569CF0000F18BF4EF0010EE0
:10062000A4F1FF04B6F5007F64F5407404D25FEADC
:100630004E0E6D4146EB060642EAC62141EA55518F
:100640004FEAC52040EA5E504FEACE2EB4F1FD0CD1
:1006500088BFBCF5E06F1ED8BEF1004F08BF5FEA4F
:10066000500E50F1000041EB045170BD06F0004601
:1006700046EA010140EA020081EA0301B4EB5C04AE
:10068000C2BFD4EB0C0541EA045170BD41F48011A6
:100690004FF0000E013C00F3AB8014F1360FDEBFCB
:1006A000002001F0004170BDC4F10004203C35DAA7
:1006B0000C341BDC04F11404C4F1200500FA05F32A
:1006C00020FA04F001FA05F240EA020001F00042CB
:1006D00021F0004110EBD37021FA04F642EB060141
:1006E0005EEA430E08BF20EAD37070BDC4F10C046B
:1006F000C4F1200500FA04F320FA05F001FA04F22F
:1007000040EA020001F0004110EBD37041F100011A
:100710005EEA430E08BF20EAD37070BDC4F1200525
:1007200000FA05F24EEA020E20FA04F301FA05F28D
:1007300043EA020321FA04F001F0004121FA04F235
:1007400020EA020000EBD3705EEA430E08BF20EA05
:10075000D37070BD94F0000F0FD101F0004640003F
:1007600041EB010111F4801F08BF013CF7D041EAC1
:10077000060195F0000F18BF704703F000465200C5
:1007800043EB030313F4801F08BF013DF7D043EA96
:100790000603704794EA0C0F0CEA135518BF95EA4C
:1007A0000C0F0CD050EA410618BF52EA4306D1D1D3
:1007B00081EA030101F000414FF0000070BD50EAF2
:1007C000410606BF1046194652EA430619D094EA7C
:1007D0000C0F02D150EA013613D195EA0C0F05D166
:1007E00052EA03361CBF104619460AD181EA0301BA
:1007F00001F0004141F0FE4141F470014FF0000072
:1008000070BD41F0FE4141F4780170BD70B54FF00C
:10081000FF0C4CF4E06C1CEA11541DBF1CEA13558C
:1008200094EA0C0F95EA0C0F00F0A7F8A4EB05046E
:1008300081EA030E52EA03354FEA013100F0888065
:100840004FEA03334FF0805545EA131343EA12632E
:100850004FEA022245EA111545EA10654FEA0026E3
:100860000EF000419D4208BF964244F1FD0404F59C
:10087000407402D25B084FEA3202B61A65EB0305F8
:100880005B084FEA32024FF480104FF4002CB6EBB5
:10089000020E75EB030E22BFB61A754640EA0C0035
:1008A0005B084FEA3202B6EB020E75EB030E22BF75
:1008B000B61A754640EA5C005B084FEA3202B6EBB6
:1008C000020E75EB030E22BFB61A754640EA9C0075
:1008D0005B084FEA3202B6EB020E75EB030E22BF45
:1008E000B61A754640EADC0055EA060E18D04FEA03
:1008F000051545EA16754FEA06164FEAC30343EAA3
:1009000052734FEAC2025FEA1C1CC0D111F4801F6F
:100910000BD141EA00014FF000004FF0004CB6E768
:1009200011F4801F04BF01430020B4F1FD0C88BF07
:10093000BCF5E06F3FF6AFAEB5EB030C04BFB6EB12
:10094000020C5FEA500C50F1000041EB045170BD05
:100950000EF0004E4EEA113114EB5C04C2BFD4EB32
:100960000C0541EA045170BD41F480114FF0000EB6
:10097000013C90E645EA060E8DE60CEA135594EA32
:100980000C0F08BF95EA0C0F3FF43BAF94EA0C0F35
:100990000AD150EA01347FF434AF95EA0C0F7FF4AA
:1009A00025AF104619462CE795EA0C0F06D152EAFE
:1009B00003353FF4FDAE1046194622E750EA4106E2
:1009C00018BF52EA43067FF4C5AE50EA41047FF4F3
:1009D0000DAF52EA43057FF4EBAE12E74FF0FF3C58
:1009E00006E000BF4FF0010C02E000BF4FF0010C29
:1009F0004DF804CD4FEA410C7FEA6C5C4FEA430CA2
:100A000018BF7FEA6C5C1BD001B050EA410C0CBFF0
:100A100052EA430C91EA030F02BF90EA020F002052
:100A2000704710F1000F91EA030F58BF994208BFB9
:100A300090422CBFD8176FEAE37040F00100704776
:100A40004FEA410C7FEA6C5C02D150EA013C07D1CD
:100A50004FEA430C7FEA6C5CD6D152EA033CD3D018
:100A60005DF8040B704700BF8446104662468C4612
:100A70001946634600E000BF01B5FFF7B7FF002845
:100A800048BF10F1000F01BD4DF808EDFFF7F4FF6E
:100A90000CBF012000205DF808FB00BF4DF808EDF9
:100AA000FFF7EAFF34BF012000205DF808FB00BF1C
:100AB0004DF808EDFFF7E0FF94BF012000205DF83E
:100AC00008FB00BF4DF808EDFFF7CEFF94BF0120F3
:100AD00000205DF808FB00BF4DF808EDFFF7C4FFEC
:100AE00034BF012000205DF808FB00BF4FEA410C35
:100AF0007FEA6C5C02D150EA013C0AD14FEA430C18
:100B00007FEA6C5C02D152EA033C02D14FF0000054
:100B100070474FF0010070474FEA410212F5001292
:100B200015D211D56FF47873B3EB625212D94FEA34
:100B3000C12343F0004343EA505311F0004F23FA1E
:100B400002F018BF404270474FF00000704750EA73
:100B5000013005D111F0004008BF6FF00040704730
:100B60004FF00000704700BF4A0011D212F500128A
:100B700011D20DD56FF47873B3EB62520ED44FEAF5
:100B8000C12343F0004343EA505323FA02F0704775
:100B90004FF00000704750EA013002D14FF0FF30B3
:100BA00070474FF0000070474FEA4102B2F1E04356
:100BB00024BFB3F5001CDCF1FE5C0DD901F0004C44
:100BC0004FEAC0024CEA5070B2F1004F40EB830094
:100BD00008BF20F00100704711F0804F21D113F1C0
:100BE0003872BCBF01F00040704741F480114FEAF9
:100BF0005252C2F11802C2F1200C10FA0CF320FA82
:100C000002F018BF40F001004FEAC1234FEAD3239E
:100C100003FA0CFC40EA0C0023FA02F34FEA430308
:100C2000CCE77FEA625307D150EA01331EBF4FF091
:100C3000FE4040F44000704701F0004040F0FE40AC
:100C400040F40000704700BF80F0004002E000BFA9
:100C500081F0004142001FBF5FEA410392EA030FA7
:100C60007FEA226C7FEA236C6AD04FEA1262D2EBF1
:100C70001363C1BFD218414048404140B8BF5B42F6
:100C8000192B88BF704710F0004F40F4000020F08F
:100C90007F4018BF404211F0004F41F4000121F0A5
:100CA0007F4118BF494292EA030F3FD0A2F10102EF
:100CB00041FA03FC10EB0C00C3F1200301FA03F12D
:100CC00000F0004302D5494260EB4000B0F5000F50
:100CD00013D3B0F1807F06D340084FEA310102F10F
:100CE0000102FE2A51D2B1F1004F40EBC25008BFC1
:100CF00020F0010040EA03007047490040EB00008B
:100D0000013A28BFB0F5000FEDD2B0FA80FCACF18B
:100D1000080CB2EB0C0200FA0CF0AABF00EBC250B8
:100D200052421843BCBFD0401843704792F0000FA6
:100D300081F4000106BF80F400000132013BB5E7F9
:100D40004FEA41037FEA226C18BF7FEA236C21D06F
:100D500092EA030F04D092F0000F08BF08467047D4
:100D600090EA010F1CBF0020704712F07F4F04D1A2
:100D7000400028BF40F00040704712F100723CBFB5
:100D800000F50000704700F0004343F0FE4040F4DF
:100D9000000070477FEA226216BF08467FEA23639D
:100DA0000146420206BF5FEA412390EA010F40F488
:100DB000800070474FF0000304E000BF10F00043D4
:100DC00048BF40425FEA000C08BF704743F09643BB
:100DD00001464FF000001CE050EA010208BF7047D6
:100DE0004FF000030AE000BF50EA010208BF70475D
:100DF00011F0004302D5404261EB41015FEA010C72
:100E000002BF84460146002043F0B64308BFA3F169
:100E10008053A3F50003BCFA8CF2083AA3EBC2534B
:100E200010DB01FA02FC634400FA02FCC2F120026A
:100E3000BCF1004F20FA02F243EB020008BF20F0A1
:100E40000100704702F1200201FA02FCC2F1200207
:100E500050EA4C0021FA02F243EB020008BF20EAFC
:100E6000DC7070474FF0FF0C1CEAD0521EBF1CEA2A
:100E7000D15392EA0C0F93EA0C0F6FD01A4480EA18
:100E8000010C400218BF5FEA41211ED04FF0006301
:100E900043EA501043EA5111A0FB01310CF000402D
:100EA000B1F5000F3EBF490041EAD3715B0040EA53
:100EB000010062F17F02FD2A1DD8B3F1004F40EB23
:100EC000C25008BF20F00100704790F0000F0CF0F6
:100ED000004C08BF49024CEA502040EA51207F3ABA
:100EE000C2BFD2F1FF0340EAC250704740F4000095
:100EF0004FF00003013A5DDC12F1190FDCBF00F086
:100F000000407047C2F10002410021FA02F1C2F133
:100F1000200200FA02FC5FEA310040F1000053EACF
:100F20004C0308BF20EADC70704792F0000F00F01D
:100F3000004C02BF400010F4000F013AF9D040EA23
:100F40000C0093F0000F01F0004C02BF490011F4B7
:100F5000000F013BF9D041EA0C018FE70CEAD153B5
:100F600092EA0C0F18BF93EA0C0F0AD030F0004C35
:100F700018BF31F0004CD8D180EA010000F00040E9
:100F8000704790F0000F17BF90F0004F084691F0A7
:100F9000000F91F0004F14D092EA0C0F01D14202E1
:100FA0000FD193EA0C0F03D14B0218BF084608D1AA
:100FB00080EA010000F0004040F0FE4040F40000F4
:100FC000704740F0FE4040F4400070474FF0FF0C87
:100FD0001CEAD0521EBF1CEAD15392EA0C0F93EACE
:100FE0000C0F69D0A2EB030280EA010C49024FEA20
:100FF000402037D04FF0805343EA111143EA1013D9
:101000000CF000408B4238BF5B0042F17D024FF490
:10101000000C8B4224BF5B1A40EA0C00B3EB510F6B
:1010200024BFA3EB510340EA5C00B3EB910F24BF54
:10103000A3EB910340EA9C00B3EBD10F24BFA3EBD9
:10104000D10340EADC001B0118BF5FEA1C1CE0D1A1
:10105000FD2A3FF650AF8B4240EBC25008BF20F054
:10106000010070470CF0004C4CEA50207F32C2BFA8
:10107000D2F1FF0340EAC250704740F400004FF045
:101080000003013A37E792F0000F00F0004C02BF76
:10109000400010F4000F013AF9D040EA0C0093F040
:1010A000000F01F0004C02BF490011F4000F013B9A
:1010B000F9D041EA0C0195E70CEAD15392EA0C0F02
:1010C00008D142027FF47DAF93EA0C0F7FF470AF3A
:1010D000084676E793EA0C0F04D14B023FF44CAF7D
:1010E00008466EE730F0004C18BF31F0004CCAD112
:1010F00030F000427FF45CAF31F000437FF43CAF4E
:101100005FE700BF4FF0FF3C06E000BF4FF0010C6F
:1011100002E000BF4FF0010C4DF804CD4FEA400251
:101120004FEA41037FEA226C18BF7FEA236C11D09B
:1011300001B052EA530C18BF90EA010F58BFB2EB4E
:10114000030088BFC81738BF6FEAE17018BF40F0CE
:10115000010070477FEA226C02D15FEA402C05D182
:101160007FEA236CE4D15FEA412CE1D05DF8040B07
:10117000704700BF844608466146FFE70FB5FFF79A
:10118000C9FF002848BF10F1000F0FBD4DF808ED52
:10119000FFF7F4FF0CBF012000205DF808FB00BF43
:1011A0004DF808EDFFF7EAFF34BF012000205DF89D
:1011B00008FB00BF4DF808EDFFF7E0FF94BF0120EA
:1011C00000205DF808FB00BF4DF808EDFFF7D2FFE7
:1011D00094BF012000205DF808FB00BF4DF808ED2A
:1011E000FFF7C8FF34BF012000205DF808FB00BFF7
:1011F0004FEA4002B2F1FE4F0FD34FF09E03B3EB24
:1012000012620DD94FEA002343F0004310F0004F63
:1012100023FA02F018BF404270474FF000007047B9
:1012200012F1610F01D1420205D110F0004008BF58
:101230006FF0004070474FF00000704742000ED240
:10124000B2F1FE4F0BD34FF09E03B3EB126209D401
:101250004FEA002343F0004323FA02F070474FF0B7
:101260000000704712F1610F01D1420202D14FF02C
:10127000FF3070474FF00000704700BF38B50022C4
:10128000002304460D46FFF709FC28B920462946ED
:10129000BDE8384000F00AB8204605F1004100F0F2
:1012A00005F8404261EB410138BD00BFD0B50022D6
:1012B0000B4B06460F46FFF77FF9FFF755FC044638
:1012C000FFF700F90022074BFFF776F902460B46BD
:1012D00030463946FEF7B8FFFFF746FC2146D0BD41
:1012E0000000F03D0000F04180B485B000AFF86030
:1012F000B9607A60FB68064A1A60BB68054A1A60E2
:101300007B6880221A6000BF1437BD4680BC7047DE
:101310009C0700203C08002080B485B000AFF86036
:10132000B9607A60FB68074A1A60BB68064A1A60AF
:101330007B684FF480721A6000BF1437BD4680BCD2
:10134000704700BF3C0A0020DC0A002080B485B052
:1013500000AFF860B9607A603B60FB68BA681A60F9
:10136000FB687A685A60FB683A689A60FB684FF0DD
:101370000002DA60FB684FF000021A6100BF143708
:10138000BD4680BC704790B587B000AFF860B960CB
:101390007A603B607968B868FFF75AFC03467B6166
:1013A000FB681C6939687869FFF75CFD03461946DC
:1013B0002046FFF74FFC03461A46FB681A61FB689C
:1013C000DB6819467869FFF743FC03463B61FB681D
:1013D0007A69DA60FB681B6879691846FFF742FD95
:1013E00003461C46FB685A68FB681B691946104691
:1013F000FFF738FD034619462046FFF72BFC03464E
:101400001C46FB689B6839691846FFF72BFD0346AD
:1014100019462046FFF71EFC034618461C37BD46FA
:1014200090BD000090B585B000AF78607B681B6808
:10143000574A934240F0A880564B1B68FB81554B9E
:101440005B68BB81534B9B687B81534B5B88FA89FC
:101450009A4203D2504B5B88FB8107E04E4B1B88BE
:10146000FA899A4202D94C4B1B88FB81FB894A4A74
:1014700052889B1A1846FFF7A1FC0446464B1B886E
:101480001A46454B5B88D31A1846FFF797FC03466C
:1014900019462046FFF79AFD034640491846FFF7D4
:1014A000E1FC03461846FFF7C9FE03469AB23C4BDF
:1014B000A3F80320384BDB88BA899A4203D2364B13
:1014C000DB88BB8107E0344B9B88BA899A4202D9FA
:1014D000314B9B88BB81BB892F4AD2889B1A184607
:1014E000FFF76CFC04462C4B9B881A462A4BDB8882
:1014F000D31A1846FFF762FC034619462046FFF749
:1015000065FD034625491846FFF7ACFC034618461F
:10151000FFF794FE03469AB2214BA3F805201E4B19
:101520005B897A899A4203D21B4B5B897B8107E0F6
:10153000194B1B897A899A4202D9174B1B897B81E7
:101540007B89154A52899B1A1846FFF737FC0446D7
:10155000114B1B891A46104B5B89D31A1846FFF7AB
:101560002DFC034619462046FFF730FD03460B4984
:101570001846FFF777FC03461846FFF75FFE034661
:101580009AB2074BA3F8072000BF1437BD4690BDA1
:1015900000240140381000201000002000F07F459A
:1015A0006005002080B483B000AF00237B609E4BB9
:1015B0009B6803F00803002B0CBF01230023DBB260
:1015C0001A467B6813437B60974B9B6803F01003BC
:1015D000002B01D0002300E002231A467B6813434E
:1015E0007B60914B9B6803F02003002B01D000230C
:1015F00000E004231A467B6813437B608A4B9B6898
:1016000003F04003002B13D0874B9B6803F080034B
:10161000002B0DD0854B9B6803F01003002B07D0E7
:10162000824B9B6803F02003002B01D0082300E0CD
:1016300000231A467B6813437B607C4B9B6803F056
:101640001003002B0DD1784B9B6803F04003002B57
:1016500007D0754B9B6803F08003002B01D010234B
:1016600000E000231A467B6813437B606E4B9B6847
:1016700003F04003002B01D1202300E000231A4691
:101680007B6813437B60694B9B6803F02003002B4E
:1016900001D1402300E000231A467B6813437B609E
:1016A000634B9B6803F00103002B0DD1604B9B68DB
:1016B00003F00203002B07D05D4B9B6803F004038B
:1016C000002B01D0802300E000231A467B681343DF
:1016D0007B60574B9B6803F00203002B02D14FF451
:1016E000807300E000231A467B6813437B60504BF5
:1016F0009B6803F00103002B0ED04D4B9B6803F059
:101700000203002B08D04A4B9B6803F00403002B14
:1017100002D14FF4007300E000231A467B681343A4
:101720007B60434B9B6803F00403002B0ED0404BBF
:101730009B6803F00103002B08D03D4B9B6803F02E
:101740000203002B02D04FF4806300E000231A460E
:101750007B6813437B60364B9B6803F40063002B6C
:1017600001D0002301E04FF400631A467B68134365
:101770007B602F4B9B6803F48053002B01D0002328
:1017800001E04FF480531A467B6813437B60284B7B
:101790009B6803F40053002B01D0002301E04FF4B9
:1017A00000531A467B6813437B60214B9B6803F40C
:1017B0008043002B01D0002301E04FF480431A4600
:1017C0007B6813437B601A4B9B6803F40043002B38
:1017D00001D0002301E04FF400431A467B68134315
:1017E0007B60124B9B6803F04003002B01D0002369
:1017F00001E04FF480331A467B6813437B600B4B48
:101800009B6803F08003002B01D0002301E04FF41C
:1018100000331A467B6813437B607B6818460C379D
:10182000BD4680BC704700BF000801400010014069
:10183000000C014080B485B000AF0346FB80FB88FC
:10184000012B02D0FB88022B78D13F4B9B6803F021
:101850000103002B01D0022200E000223A4B9B68DA
:1018600003F00203002B14BF01230023DBB25BB2A1
:1018700013435BB2FB73354B1B7EDBB2032B5AD891
:1018800001A252F823F000BF99180008BD18000803
:1018900005190008E1180008FB7B012B05D12B4B33
:1018A0005B690133294A53613EE0FB7B022B3BD14C
:1018B000264B5B69013B254A536135E0FB7B032BDB
:1018C00005D1224B5B690133204A53612EE0FB7B3B
:1018D000002B2BD11D4B5B69013B1C4A536125E05A
:1018E000FB7B022B05D1194B5B690133174A53610E
:1018F0001EE0FB7B012B1BD1144B5B69013B134AA0
:10190000536115E0FB7B002B05D1104B5B69013364
:101910000E4A53610EE0FB7B032B0BD10B4B5B6933
:10192000013B0A4A536105E000BF04E000BF02E04A
:1019300000BF00E000BF054AFB7B137600BF1437F1
:10194000BD4680BC704700BF0010014094050020D8
:1019500080B485B000AFF8607B600B467B81134696
:101960003B81FB681B887A899A4207D8FB681B88F1
:101970003A89934228BF13469BB200E07B89FA68FC
:101980001380FB681A887B681A8000BF1437BD4635
:1019900080BC704780B586B000AFF860B9607A60EF
:1019A0003B60FA68BB6813441B687B617B6919461E
:1019B0007868FFF713FC0346002B01D07B680AE030
:1019C0007B6919463868FFF7EBFB0346002B01D013
:1019D0003B6800E07B693A6A136000BF1837BD4678
:1019E00080BDB0B483B000AF786039607A683B687E
:1019F00013441B7819463B6801337A6813441B78FB
:101A00001B0241EA03023B68023379680B441B78EE
:101A10001B041A433B68033379680B441B781B068D
:101A20001343DA171C46154622462B461046194624
:101A30000C37BD46B0BC7047B0B59CB000AF01F0EC
:101A40004DFC00F081F800F0C7FA00F0A7FA00F0B2
:101A5000DBF800F0D5F900F033F900F051FA00227C
:101A600004212E4802F0F4FD002208212B4802F048
:101A7000EFFD2B4805F098F800212A4805F04CF9B5
:101A8000294B07F154041D460FCD0FC495E80700FC
:101A900084E8070007F154030021184609F080FF8D
:101AA0000346224A1360224B07F138041D460FCD2E
:101AB0000FC495E8070084E8070007F13803002108
:101AC000184609F06DFF03461A4A13601A4B07F1D6
:101AD0001C041D460FCD0FC495E8070084E80700DD
:101AE00007F11C030021184609F05AFF0346134A68
:101AF0001360134B3C461D460FCD0FC495E80700FD
:101B000084E807003B460021184609F049FF0346D8
:101B10000C4A136009F03DFF00BFFDE700100140D3
:101B2000E00F0020500F0020286E01082810002030
:101B3000546E01082C100020806E01083010002027
:101B4000AC6E01083410002080B596B000AF07F1EC
:101B5000300328220021184610F05FFD07F11C0316
:101B600000221A605A609A60DA601A613B1D0022F6
:101B70001A605A609A60DA601A615A6101233B6305
:101B80004FF480337B630023BB6301233B64022358
:101B9000FB644FF480333B654FF4E0137B6507F142
:101BA0003003184604F0CEFA0346002B01D001F0B2
:101BB00063F80F23FB6102233B6200237B624FF437
:101BC0008063BB620023FB6207F11C0302211846FD
:101BD00004F03AFD0346002B01D001F04DF812232A
:101BE0007B604FF40043FB600023BB613B1D184644
:101BF00004F0D4FE0346002B01D001F03DF800BFF5
:101C00005837BD4680BD000080B584B000AF3B1D95
:101C100000221A605A609A60274B284A1A60264BA5
:101C20004FF480729A60244B01221A73224B0022D7
:101C30001A75214B4FF46022DA611F4B00225A6063
:101C40001D4B03221A611C4801F07AFB0346002B4E
:101C500001D001F011F800237B600123BB60072352
:101C6000FB603B1D1946144801F044FD0346002B60
:101C700001D001F001F801237B600223BB603B1D12
:101C800019460D4801F036FD0346002B01D000F047
:101C9000F3FF02237B600323BB603B1D194606480C
:101CA00001F028FD0346002B01D000F0E5FF00BF46
:101CB0001037BD4680BD00BFDC0E0020002401406F
:101CC00080B596B000AF07F1480300221A605A6051
:101CD0009A60DA6007F1400300221A605A6007F147
:101CE000240300221A605A609A60DA601A615A610D
:101CF0009A613B1D20220021184610F08EFC3E4BBD
:101D00003E4A1A603C4B47225A603B4B00229A6085
:101D1000394B40F2E732DA60374B00221A61364B1A
:101D200000225A61344B00229A61334804F0ECFEE1
:101D30000346002B01D000F09FFF4FF48053BB649B
:101D400007F1480319462C4805F0C2FA0346002B58
:101D500001D000F091FF284804F086FF0346002BD5
:101D600001D000F089FF00233B6400237B6407F16E
:101D700040031946204805F083FE0346002B01D09E
:101D800000F07AFF60237B620023BB620023FB62CA
:101D900000233B6300237B630023BB630023FB63BF
:101DA00007F1240300221946134805F0CFF9034632
:101DB000002B01D000F060FF00237B600023BB609C
:101DC0000023FB6000233B6100237B614FF4005341
:101DD000BB6100233B623B1D1946074805F0BCFE72
:101DE0000346002B01D000F047FF034801F036F80E
:101DF00000BF5837BD4680BD500F0020002C014069
:101E000080B58EB000AF07F1280300221A605A6037
:101E10009A60DA6007F1200300221A605A603B1DC5
:101E200000221A605A609A60DA601A615A619A61F7
:101E3000324B4FF080421A60304B00225A602F4BD9
:101E400000229A602D4B40F6B732DA602B4B00220D
:101E50001A612A4B00229A61284804F055FE034675
:101E6000002B01D000F008FF4FF48053BB6207F154
:101E700028031946214805F02BFA0346002B01D010
:101E800000F0FAFE1D4804F0EFFE0346002B01D0DF
:101E900000F0F2FE00233B6200237B6207F1200387
:101EA0001946164805F0ECFD0346002B01D000F062
:101EB000E3FE60237B600023BB600023FB60002304
:101EC0007B613B1D002219460C4805F03FF9034693
:101ED000002B01D000F0D0FE3B1D08221946074818
:101EE00005F034F90346002B01D000F0C5FE03488D
:101EF00000F0B4FF00BF3837BD4680BD980F00200A
:101F000080B586B000AF07F1080300221A605A605E
:101F10009A60DA603B4600221A605A601D4B1E4AE6
:101F20001A601C4B41F61F425A601A4B00229A60FD
:101F3000184B40F2DB52DA60164B00221A61154B47
:101F400080229A61134804F0DFFD0346002B01D084
:101F500000F092FE4FF48053BB6007F1080319466E
:101F60000C4805F0B5F90346002B01D000F084FEC3
:101F700000233B6000237B603B461946054805F083
:101F80007FFD0346002B01D000F076FE00BF18371E
:101F9000BD4680BDE00F00200008004080B582B043
:101FA00000AF0C4B5B690B4A43F001035361094BD3
:101FB0005B6903F001037B607B68002205210B2035
:101FC00001F047FE0B2001F060FE00BF0837BD4660
:101FD00080BD00BF0010024080B588B000AF07F19F
:101FE000100300221A605A609A60DA60434B9B69C2
:101FF000424A43F010039361404B9B6903F0100386
:10200000FB60FB683D4B9B693C4A43F020039361B6
:102010003A4B9B6903F02003BB60BB68374B9B695D
:10202000364A43F004039361344B9B6903F0040385
:102030007B607B68314B9B69304A43F008039361B6
:102040002E4B9B6903F008033B603B6800220C2188
:102050002B4802F0FDFA03233B612A4B7B610123ED
:10206000BB6107F110031946254802F05DF90C2306
:102070003B6101237B610123BB610223FB6107F10B
:10208000100319461E4802F04FF9F8233B61002364
:102090007B610123BB6107F1100319461A4802F066
:1020A00043F9F0233B6100237B610123BB6107F10E
:1020B00010031946124802F037F94FF607033B6147
:1020C00000237B610123BB6107F1100319460F4810
:1020D00002F02AF900220521062001F0BAFD0620AF
:1020E00001F0D3FD00220521072001F0B2FD0720F9
:1020F00001F0CBFD00BF2037BD4680BD001002407F
:10210000001001400000311000080140000C0140A7
:1021100080B584B000AF78600CF04EF90023FB600E
:102120000A23BB600F2009F087FC0A4B1B68FA6882
:102130005A63BB68FA681344FB60064BDB68FA68B5
:102140009A4202D2FB68002BECD1BB685B42BB60B9
:10215000E8E700BF500F00202DE9F04F93B006AF25
:10216000F861A54B1B78002BFBD0A44B1B78452BAB
:1021700000F39480002B40F39983013B442B00F241
:10218000958301A252F823F0A522000841230008FC
:102190005F230008012400084F2400086D24000874
:1021A000AD280008AD280008AD280008A1240008CB
:1021B000EB240008AD280008AD280008AD28000871
:1021C000AD280008AD280008AD280008AD2800089B
:1021D000AD280008AD280008AD280008AD2800088B
:1021E000AD280008AD280008AD280008AD2800087B
:1021F000AD280008AD280008AD280008AD2800086B
:10220000AD280008AD280008AD280008AD2800085A
:10221000AD280008AD280008AD280008AD2800084A
:10222000AD280008AD280008AD280008AD2800083A
:10223000AD280008AD280008AD280008AD2800082A
:10224000AD280008AD280008AD280008AD2800081A
:10225000AD280008AD280008AD280008AD2800080A
:10226000AD280008AD280008AD280008AD280008FA
:10227000AD280008AD280008AD280008AD280008EA
:10228000AD28000879250008AD280008AD28000811
:10229000AD280008AD2800086D250008642B00F06B
:1022A000788103E3554B93F80180544B93F80290E7
:1022B000524BDB781A46514B1B791B0213431846CD
:1022C000FEF710F902460B46924623F0004B48A356
:1022D000D3E9002350465946FEF7F4FB0346002B92
:1022E00002D047F2315507E0444BDB781A46434BA6
:1022F0001B791B0213439DB2404B93F805C03F4B23
:102300009E793E4BDB791AB23C4B1B7A1B021BB207
:1023100013431BB29CB2394B587A384B997A374BDE
:10232000DA7A364B1B7B0593049203910290019459
:10233000009663462A46494640460DF0D9F8BAE26F
:102340002E4B58782D4B99782C4BDA782B4B1C79E7
:102350002A4B5B79009323460DF0D4F9ABE2274B6F
:102360005C78264B9B781AB2244BDB781B021BB29D
:1023700013431DB2214B1B791AB2204B5B791B0210
:102380001BB213431EB21D4B9B791AB21B4BDB7958
:102390001B021BB213430FFA83FC184B1B7A1AB2B1
:1023A000164B5B7A1B021BB213431BB298B2134B42
:1023B0009B7A1AB2114BDB7A1B021BB213431BB27E
:1023C00099B20E4B1B7B1AB20C4B5B7B1B021BB2F0
:1023D00013431BB29BB202930191009063463246B5
:1023E000294620460DF052FA65E200BFAFF30080A7
:1023F00000000000404CDD40683600206C360020B4
:102400009D4B58789C4B99789B4BDB781AB29A4B32
:102410001B791B021BB213431BB29CB2964B5B7918
:102420001AB2954B9B791B021BB213431DB2924B00
:10243000DB791AB2904B1B7A1B021BB213431BB2FF
:102440009BB200932B4622460DF0BEF933E28A4B35
:102450005878894B9B781AB2874BDB781B021BB2EA
:1024600013431BB219460DF0C9F824E2824B587889
:10247000814B9B781AB2804BDB781B021BB2134353
:102480001BB299B27C4B1B791AB27B4B5B791B0256
:102490001BB213431BB29BB21A460DF0EBF80AE2D3
:1024A000754B9B78012B08D1734B5B78724AD278BD
:1024B000114618460CF0FAFDFAE16F4B9B78022B9F
:1024C00008D16D4B5B786C4AD278114618460CF0F7
:1024D00041FEEDE1684B9B78032B40F0E981664BB0
:1024E0005B7818460CF0A6FEE2E1634B5B7803F0E4
:1024F0000103002B02D00CF033FDDBE15E4B5B7877
:102500005B08DBB203F00103002B02D00CF050FD9E
:10251000D0E1594B5B789B08DBB203F00103002B41
:1025200002D00CF065FDC5E1534B5B78DB08DBB2F4
:1025300003F00103002B02D00CF07EFDBAE14E4BFC
:102540005B781B09DBB203F00103002B02D00CF017
:1025500089FDAFE1484B5B785B09DBB203F0010317
:10256000002B00F0A7810CF08FFDA3E1424B5B78BC
:1025700018460DF001FA9EE13F4B9B781B021AB200
:102580003D4B5B781BB213431BB29AB23B4B1A8094
:1025900091E1394B5C78E3B200223B607A60D7E985
:1025A0000023C7E90A2302213348FFF71AFA02463B
:1025B0000B46C7E90823631E142B00F2758101A2A4
:1025C00052F823F019260008292600088926000859
:1025D000E9260008FB2600080D2700081F27000831
:1025E00031270008432700085527000867270008FF
:1025F000792700088B2700089D270008B1270008CD
:10260000D7270008FD2700082328000849280008CC
:102610006F28000895280008194B4FF000021A6037
:10262000174B00225A6140E1D7E9082393B21E2BD1
:1026300038BF1E239BB29BB200223B617A61D7E96F
:102640000434C7E90834D7E9082392B20C4B9A80C6
:102650000B4B9B889BB21A46094B1B8A9BB202FB11
:1026600003F3084A82FB03121A44D211DB17D31A70
:10267000034A136219E100BF6C3600204A3E002075
:1026800094050020B7600BB6D7E9082393B20A2B54
:1026900038BF0A239BB29BB20022BB60FA60D7E925
:1026A0000234C7E90834D7E9082392B2844B1A826E
:1026B000834B1B8A9BB21846FDF714FF4FF00002B4
:1026C000804BFDF779FF02460B464FF000007E4934
:1026D000FEF79CF802460B4610461946FEF764FAD0
:1026E00003467A4A1360E0E007F12000784B4FF68A
:1026F000FF720021FFF72CF9D7E007F12000754B9E
:102700004FF6FF720021FFF723F9CEE007F120001A
:10271000714B4FF6FF720021FFF71AF9C5E007F180
:1027200020006E4B4FF6FF720021FFF711F9BCE05D
:1027300007F120006A4B4FF6FF720021FFF708F9FE
:10274000B3E007F12000674B4FF6FF720021FFF75F
:10275000FFF8AAE007F12000634B4FF6FF7200215B
:10276000FFF7F6F8A1E007F12000604B4FF6FF728B
:102770000021FFF7EDF898E007F120005C4B4FF6E1
:10278000FF720021FFF7E4F88FE007F12000594BBA
:102790004FF6FF720021FFF7DBF886E0564B0093FF
:1027A000564B4FF0000202215548FFF7F3F87CE04A
:1027B000544B0093514B4FF0000202215048FFF759
:1027C000E9F8504B1968504B1A68504B1B68504839
:1027D0000DF0C2F969E04C4B0093484B4FF00002FA
:1027E00002214748FFF7D6F8464B1968464B1A684E
:1027F000464B1B6846480DF0AFF956E0434B00933B
:102800003E4B4FF0000202213D48FFF7C3F83D4B1D
:1028100019683D4B1A683D4B1B683D480DF09CF90B
:1028200043E03C4B0093354B4FF00002022134480B
:10283000FFF7B0F8374B1968374B1A68374B1B68EE
:102840003748FEF783FD30E0334B00932B4B4FF0BE
:10285000000202212A48FFF79DF82E4B19682E4BE3
:102860001A682E4B1B682E48FEF770FD1DE02B4B9F
:102870000093224B4FF0000202212148FFF78AF813
:10288000244B1968244B1A68244B1B682448FEF714
:102890005DFD0AE0234B0093184B4FF0000202212C
:1028A0001748FFF777F800E000BF04E000BF02E040
:1028B00000BF00E000BF1C4B00221A7051E400BFB3
:1028C0009405002000001040008076405C1000203D
:1028D000100000201200002014000020160000202C
:1028E000180000201A000020780500207A0500203A
:1028F0007C0500207E05002080050020FFFF7F7FF3
:102900006C360020880500208C05002090050020F2
:10291000503E002004000020080000200C00002091
:1029200044100020840500206836002090B589B04E
:1029300000AF78600023FB77764B1B8A9BB218466A
:10294000FEF738FA03461846FDF7DEFD4FF00002A9
:10295000714BFDF731FE02460B464FF000006F4908
:10296000FDF754FF02460B4610461946FEF71CF9C8
:1029700003466B4A13606B4B19686B4B1A686B4BC1
:102980001B686B48FEF7E2FC6A4B19686A4B1A68D1
:102990006A4B1B686A480DF0DFF85E4B5B691846AE
:1029A000FEF70CFA02465E4B1B6819461046FEF70E
:1029B00059FA03461A46574B1A60624B1B78012B93
:1029C00040F0A380534B1C68524B9B889BB25B0822
:1029D0009BB21846FEF7F2F9034619462046FEF769
:1029E000FDFB0346002B12D14A4B1C68494B9B88C8
:1029F0009BB25B089BB25B421846FEF7DFF90346C9
:102A000019462046FEF7CCFB0346002B54D000F0BD
:102A10008DFC38614C4B1B683A69D31A1846FEF797
:102A2000C9F9034649491846FEF7D0FA0346FB6048
:102A3000384B1B684FF000011846FEF7CFFB0346EA
:102A4000002B09D0334B9B889BB25B089BB2184686
:102A5000FEF7B4F9014609E02E4B9B889BB25B0858
:102A60009BB25B421846FEF7A9F90146294B1A684A
:102A7000FB682F48FEF787FCB861334A3B69136057
:102A80003349B869FEF7AAFB0346002B02D0304B4E
:102A9000BB6108E02F49B869FEF782FB0346002BB3
:102AA00001D02C4BBB61B869FEF7A2FB03461BB2F9
:102AB00018460DF0E3F828E0274B1B78012B24D0B3
:102AC0000023FB7511E0FA7D244913461B011344D2
:102AD0009B000B441B78012B02D10123FB7707E0FD
:102AE0000023FB77FB7D0133FB75FB7D082BEAD9C7
:102AF000FB7F002B02D00DF05BF906E00DF098F89B
:102B00000346002B01D00DF0A9F8012008F094FF36
:102B100043E700BF9405002000001040008076408D
:102B20005C10002004000020080000200C000020A1
:102B300044100020880500208C050020900500200E
:102B4000503E0020E03B00205810002000007A4456
:102B500000401C4600401CC6E13B0020E43B002036
:102B600080B584B000AF7860324B9B889BB21A4628
:102B7000304B1B8A9BB202FB03F32F4A82FB0312EA
:102B80001A44D211DB17D31A2A4A136203222B49A3
:102B90002B4800F0BFFC2B4B1B78032B02D0652B7E
:102BA00035D0F8E7FEF7FEFC0346274AC2F80930A5
:102BB000204B5A691F4B1B6A9A4204DD1D4B1B6A4E
:102BC0001C4AD36110E01B4B5A691A4B1B6A5B42CB
:102BD0009A4205DA174B1B6A5B42164AD36103E03F
:102BE000144B5B69134AD361124BDA691346DB035A
:102BF0009A1A104B1B6A92FBF3F31AB2124BA3F80A
:102C000001200D221049114807F048FD11E0002372
:102C1000FB7307E006220E490C4807F03FFDFB7BE3
:102C20000133FB73FB7B092BF4D9064B03221A708B
:102C300000BFB0E794050020B7600BB63810002045
:102C4000DC0E00200000002060050020A4330020DE
:102C50007005002080B582B000AF78607B681B688B
:102C6000044A934201D100F04FFB00BF0837BD4634
:102C700080BD00BF0004004080B400AF72B600BF4A
:102C800000BFFDE780B584B000AF184B9B69174AC1
:102C900043F001039361154B9B6903F00103BB6093
:102CA000BB68124BDB69114A43F08053D3610F4B71
:102CB000DB6903F080537B607B6800220F216FF09B
:102CC000010000F0C6FF0A4B5B68FB60FB6823F065
:102CD000E063FB60FB6843F00073FB60044AFB6841
:102CE000536000BF1037BD4680BD00BF00100240DA
:102CF0000000014080B588B000AF786007F1100394
:102D000000221A605A609A60DA607B681B68284A61
:102D1000934249D1274B9B69264A43F40073936140
:102D2000244B9B6903F40073FB60FB68214B9B6998
:102D3000204A43F0040393611E4B9B6903F0040394
:102D4000BB60BB6807233B6103237B6107F1100372
:102D50001946194801F0E8FA184B194A1A60174B3E
:102D600000225A60154B00229A60144B8022DA60D0
:102D7000124B4FF400721A61104B4FF400625A610B
:102D80000E4B20229A610D4B0022DA610B4800F0B5
:102D90008BFF0346002B01D0FFF76EFF7B68074ACD
:102DA0001A62064A7B68536200BF2037BD4680BD69
:102DB0000024014000100240000801400C0F0020D8
:102DC0000800024080B586B000AF78607B681B6861
:102DD0001F4A93420CD11F4B9B691E4A43F4006368
:102DE00093611C4B9B6903F400637B617B692AE060
:102DF0007B681B68B3F1804F0CD1164BDB69154A19
:102E000043F00103D361134BDB6903F001033B6122
:102E10003B6918E07B681B680F4A934213D10D4B46
:102E2000DB690C4A43F00403D3610A4BDB6903F00E
:102E30000403FB60FB68002205211E2000F009FF4F
:102E40001E2000F022FF00BF1837BD4680BD00BF26
:102E5000002C0140001002400008004080B58AB0FC
:102E600000AF786007F1140300221A605A609A607C
:102E7000DA607B681B68354A934219D1344B9B69F1
:102E8000334A43F004039361314B9B6903F004031D
:102E90003B613B694FF480737B610223BB6102237A
:102EA0003B6207F1140319462A4801F03DFA48E055
:102EB0007B681B68B3F1804F43D1254B9B69244A43
:102EC00043F008039361224B9B6903F00803FB6006
:102ED000FB681F4B9B691E4A43F0040393611C4B24
:102EE0009B6903F00403BB60BB684FF480637B61A4
:102EF0000223BB6102233B6207F114031946164803
:102F000001F012FA4FF400437B610223BB610223FC
:102F10003B6207F1140319460E4801F005FA0F4B06
:102F20005B687B627B6A23F440737B627B6A43F05D
:102F3000E0637B627B6A43F440737B62074A7B6A8F
:102F4000536000BF2837BD4680BD00BF002C014044
:102F50000010024000080140000C01400000014048
:102F600080B58EB000AF78600023FB620023BB62A7
:102F7000002387F83330344BDB69334A43F00203D4
:102F8000D361314BDB6903F00203FB60FB6807F19F
:102F9000100207F114031146184603F0B1FC3B6A16
:102FA000FB62FB6A002B03D103F096FC786304E01C
:102FB00003F092FC03465B007B637B6B234AA2FB1E
:102FC00003239B0C013BBB62214B224A1A60204B1E
:102FD00040F2E732DA601E4ABB6A53601C4B0022A3
:102FE0001A611B4B00229A60194B00229A61184803
:102FF00003F08AFD034687F8333097F83330002B0F
:103000001BD1134803F0D0FD034687F8333097F8FF
:103010003330002B11D11D2000F037FE7B680F2BC1
:1030200008D8002279681D2000F013FE0A4A7B6848
:10303000136002E0012387F8333097F833301846E5
:103040003837BD4680BD00BF0010024083DE1B4301
:1030500060100020000400402000002080B400AF79
:1030600000BFFDE780B400AF00BFFDE780B400AF54
:1030700000BFFDE780B400AF00BFFDE780B400AF44
:1030800000BFFDE780B400AF00BFBD4680BC704705
:1030900080B500AF012001F0F3FA00BF80BD80B51C
:1030A00000AF022001F0ECFA00BF80BD80B500AF98
:1030B000024800F0CFFE00BF80BD00BF0C0F002013
:1030C00080B500AF024801F00FFC00BF80BD00BF1B
:1030D000B038002080B500AF024803F047FF00BFC2
:1030E00080BD00BF6010002080B500AF034803F032
:1030F0003DFF0DF045FE00BF80BD00BFE00F00208A
:1031000080B400AF01231846BD4680BC704780B52F
:1031100082B000AF786039600FF028FB03461622BA
:103120001A604FF0FF3318460837BD4680BD80B5A2
:1031300082B000AF78604FF0FF317868FFF7E7FFAB
:1031400000BFFDE780B586B000AFF860B9607A6077
:1031500000237B610AE0AFF300800146BB685A1C84
:10316000BA60CAB21A707B6901337B617A697B6885
:103170009A42F0DB7B6818461837BD4680BD80B5A3
:1031800086B000AFF860B9607A6000237B6109E027
:10319000BB685A1CBA601B781846AFF300807B6985
:1031A00001337B617A697B689A42F1DB7B68184660
:1031B0001837BD4680BD80B483B000AF78604FF053
:1031C000FF3318460C37BD4680BC704780B483B0CF
:1031D00000AF786039603B684FF400525A600023BA
:1031E00018460C37BD4680BC704780B483B000AF32
:1031F0007860012318460C37BD4680BC704780B408
:1032000085B000AFF860B9607A60002318461437C3
:10321000BD4680BC7047000080B586B000AF7860C6
:10322000144A154BD31A7B617B693B61134B1B68B6
:10323000002B02D1114B124A1A60104B1A687B689E
:1032400013443A699A4207D20FF090FA03460C22CF
:103250001A604FF0FF3309E0084B1B68FB60074B17
:103260001A687B681344054A1360FB6818461837D0
:10327000BD4680BD00C0002000400000A810002016
:10328000B83F002080B400AF00BFBD4680BC70478F
:10329000FFF7F8FF0B480C490C4A002302E0D45812
:1032A000C4500433C4188C42F9D3094A094C002392
:1032B00001E013600432A242FBD30FF05DFAFEF787
:1032C000BBFB7047000000208007002088750108C4
:1032D00080070020B43F0020FEE7000080B500AF6B
:1032E000084B1B68074A43F010031360032000F0EB
:1032F000A5FC0F20FFF734FEFFF7C4FC002318469F
:1033000080BD00BF0020024080B400AF054B1B7899
:103310001A46054B1B681344034A136000BFBD46A1
:1033200080BC704724000020AC10002080B400AFA7
:10333000024B1B681846BD4680BC7047AC1000208D
:1033400080B586B000AF78600023FB7500233B6139
:103350000023BB600023FB607B68002B01D10123AD
:10336000CEE07B689B68002B7B689B6A002B09D1B1
:103370007B680022DA627B68002283F82420786868
:10338000FFF7B8FC786800F007FB0346FB757B6825
:103390009B6A03F01003002B40F0A980FB7D002BFB
:1033A00040F0A5807B689B6A23F4885323F00203D6
:1033B00043F002027B689A627B685A687B681B68EC
:1033C00051498B420AD17B68DB69B3F5402F02D0AB
:1033D0007B68DB6904E04FF4002301E07B68DB6974
:1033E0001A437B681B7B5B001343BA681343BB60C3
:1033F0007B689B68B3F5807F03D07B689B68012B5B
:1034000002D14FF4807300E000233A6913433B611B
:103410007B681B7D012B19D17B681B7B002B09D19D
:103420007B689B69013B5A033B69134343F4006388
:103430003B610BE07B689B6A43F020027B689A62E9
:103440007B68DB6A43F001027B68DA627B681B6899
:103450005B6823F469417B681B683A690A435A60D8
:103460007B681B689A68294B13407A681268B968B0
:103470000B4393607B689B68B3F5807F03D07B68C8
:103480009B68012B04D17B681B69013B1B05FB601A
:103490007B681B68DB6A23F470017B681B68FA6831
:1034A0000A43DA627B681B689A68194B1340BA6852
:1034B0009A420BD17B680022DA627B689B6A23F018
:1034C000030343F001027B689A6218E07B689B6A01
:1034D00023F0120343F010027B689A627B68DB6A78
:1034E00043F001027B68DA620123FB7507E07B6829
:1034F0009B6A43F010027B689A620123FB75FB7D97
:1035000018461837BD4680BD003C0140FDF7E1FF7D
:10351000FE0E1FFF80B586B000AFF860B9607A601C
:103520000023FB75FB681B68644A934204D0FB6868
:103530001B68634A934206D1604B5B6803F47023B7
:10354000002B40F0B380FB6893F82430012B01D1AD
:103550000223AEE0FB68012283F82420F86800F023
:10356000C1F90346FB75FB7D002B40F09A80FB6898
:103570009B6A23F4706323F0010343F48072FB68B9
:103580009A62FB681B684E4A934205D14B4B5B68BD
:1035900003F47023002B15D1FB689B6A23F480127F
:1035A000FB689A62FB681B685B6803F48063002B0E
:1035B00026D0FB689B6A23F4405343F48052FB6897
:1035C0009A621DE0FB689B6A43F48012FB689A6272
:1035D000FB681B68394A934204D0FB681B68384A71
:1035E00093420DD1354B5B6803F48063002B07D009
:1035F000FB689B6A23F4405343F48052FB689A6251
:10360000FB689B6A03F48053002B06D0FB68DB6ADF
:1036100023F00602FB68DA6202E0FB680022DA624D
:10362000FB68002283F82420FB681B6A254A9A6203
:10363000FB681B6A244ADA62FB681B6A234A1A6326
:10364000FB681B686FF002021A60FB681B689A68CF
:10365000FB681B6842F480729A60FB68186AFB681A
:103660001B684C331946BA687B6800F093FBFB6813
:103670001B689B6803F46023B3F5602F08D1FB68D7
:103680001B689A68FB681B6842F4A0029A600FE00E
:10369000FB681B689A68FB681B6842F480129A609A
:1036A00006E0FB68002283F8242001E00123FB757B
:1036B000FB7D18461837BD4680BD00BF0024014081
:1036C000002801401B3A0008973A0008B33A000866
:1036D00080B483B000AF786000BF0C37BD4680BCBB
:1036E000704780B483B000AF786000BF0C37BD4630
:1036F00080BC704780B485B000AF7860396000232B
:10370000FB730023BB607B6893F82430012B01D14D
:103710000223DCE07B68012283F824203B685B689D
:10372000062B1CD87B681B68596B3B685A6813468C
:103730009B001344053B1F2202FA03F3DB431940AD
:103740003B6818683B685A6813469B001344053B66
:1037500000FA03F27B681B680A435A633CE03B684B
:103760005B680C2B1CD87B681B68196B3B685A681C
:1037700013469B001344233B1F2202FA03F3DB434F
:1037800019403B6818683B685A6813469B0013440D
:10379000233B00FA03F27B681B680A431A631BE0B1
:1037A0007B681B68D96A3B685A6813469B001344C0
:1037B000413B1F2202FA03F3DB4319403B681868C0
:1037C0003B685A6813469B001344413B00FA03F2DE
:1037D0007B681B680A43DA623B681B68092B1CD9AB
:1037E0007B681B68D9683B681A6813465B00134402
:1037F0001E3B072202FA03F3DB4319403B6898683B
:103800003B681A6813465B0013441E3B00FA03F240
:103810007B681B680A43DA6019E07B681B681969DA
:103820003B681A6813465B001344072202FA03F34D
:10383000DB4319403B6898683B681A6813465B0095
:10384000134400FA03F27B681B680A431A613B6861
:103850001B68102B03D03B681B68112B32D17B688F
:103860001B681D4A934225D17B681B689B6803F443
:103870000003002B26D17B681B689A687B681B6855
:1038800042F400029A603B681B68102B1AD1134B5C
:103890001B68134AA2FB03239A0C13469B00134494
:1038A0005B00BB6002E0BB68013BBB60BB68002BF8
:1038B000F9D107E07B689B6A43F020027B689A623B
:1038C0000123FB737B68002283F82420FB7B1846CE
:1038D0001437BD4680BC7047002401401C00002006
:1038E00083DE1B4380B584B000AF78600023FB60AB
:1038F0000023BB607B681B689B6803F00103012BFE
:1039000040D07B681B689A687B681B6842F00102A4
:103910009A601F4B1B681F4AA2FB03239B0CBB60D2
:1039200002E0BB68013BBB60BB68002BF9D1FFF72D
:10393000FDFCF8601FE0FFF7F9FC0246FB68D31AB4
:10394000022B18D97B681B689B6803F00103012BCD
:1039500011D07B689B6A43F010027B689A627B6897
:10396000DB6A43F001027B68DA627B68002283F83D
:103970002420012307E07B681B689B6803F0010398
:10398000012BD8D1002318461037BD4680BD00BF9B
:103990001C00002083DE1B4380B584B000AF78603C
:1039A0000023FB607B681B689B6803F00103012B0D
:1039B0002ED17B681B689A687B681B6822F0010225
:1039C0009A60FFF7B3FCF8601BE0FFF7AFFC02461C
:1039D000FB68D31A022B14D97B681B689B6803F021
:1039E0000103012B0DD17B689B6A43F010027B68B9
:1039F0009A627B68DB6A43F001027B68DA6201232A
:103A000007E07B681B689B6803F00103012BDCD097
:103A1000002318461037BD4680BD80B584B000AF86
:103A200078607B685B6AFB60FB689B6A03F050030D
:103A3000002B27D1FB689B6A43F40072FB689A62F3
:103A4000FB681B689B6803F46023B3F5602F15D1F6
:103A5000FB681B7B002B11D1FB689B6A23F48072EF
:103A6000FB689A62FB689B6A03F48053002B05D1C4
:103A7000FB689B6A43F00102FB689A62F868FDF7F5
:103A8000D1FC04E0FB681B6A1B6B7868984700BF99
:103A90001037BD4680BD80B584B000AF78607B68CC
:103AA0005B6AFB60F868FFF713FE00BF1037BD4686
:103AB00080BD80B584B000AF78607B685B6AFB60D6
:103AC000FB689B6A43F04002FB689A62FB68DB6A12
:103AD00043F00402FB68DA62F868FFF702FE00BFF9
:103AE0001037BD4680BD000080B485B000AF78605F
:103AF0007B6803F00703FB600C4BDB68BB60BA68B4
:103B00004FF6FF031340BB60FB681A02BB68134308
:103B100043F0BF6343F40033BB60044ABB68D36027
:103B200000BF1437BD4680BC704700BF00ED00E009
:103B300080B400AF044BDB681B0A03F00703184690
:103B4000BD4680BC704700BF00ED00E080B483B08C
:103B500000AF0346FB7197F90730002B0BDBFB79B5
:103B600003F01F02064997F907305B09012000FAAC
:103B700002F241F8232000BF0C37BD4680BC7047DD
:103B800000E100E080B483B000AF03463960FB7110
:103B900097F90730002B0ADB3B68DAB20C4997F93A
:103BA00007301201D2B20B4483F800230AE03B68CD
:103BB000DAB20849FB7903F00F03043B1201D2B2D9
:103BC0000B441A7600BF0C37BD4680BC704700BF5F
:103BD00000E100E000ED00E080B489B000AFF860E3
:103BE000B9607A60FB6803F00703FB61FB69C3F10E
:103BF0000703042B28BF0423BB61FB690433062B96
:103C000002D9FB69033B00E000237B614FF0FF32E8
:103C1000BB6902FA03F3DA43BB681A407B699A4036
:103C20004FF0FF317B6901FA03F3D9437B680B4006
:103C3000134318462437BD4680BC704780B582B018
:103C400000AF78607868FFF74FFF00BF0837BD46C8
:103C500080BD80B586B000AF0346B9607A60FB7363
:103C600000237B61FFF764FF78617A68B96878693F
:103C7000FFF7B2FF024697F90F3011461846FFF7DB
:103C800081FF00BF1837BD4680BD80B582B000AF50
:103C90000346FB7197F907301846FFF757FF00BF3F
:103CA0000837BD4680BD000080B485B000AF7860A5
:103CB0000023FB607B68002B01D1012359E07B6866
:103CC0001B681A462D4B9A420FD87B681B681A4610
:103CD0002B4B13442B4AA2FB03231B099A007B683E
:103CE0001A647B68284ADA630EE07B681B681A4610
:103CF000264B1344234AA2FB03231B099A007B682B
:103D00001A647B68224ADA637B68022283F82120E6
:103D10007B681B681B68FB60FB6823F47F5323F000
:103D20003003FB607B685A687B689B681A437B683A
:103D3000DB681A437B681B691A437B685B691A431B
:103D40007B689B691A437B68DB691343FA681343FA
:103D5000FB607B681B68FA681A607B6800229A63C4
:103D60007B68012283F821207B68002283F82020D1
:103D7000002318461437BD4680BC70470704024034
:103D8000F8FFFDBFCDCCCCCC00000240F8FBFDBF5E
:103D90000004024080B586B000AFF860B9607A6078
:103DA0003B600023FB75FB6893F82030012B01D1A9
:103DB00002234BE0FB68012283F82020FB6893F884
:103DC0002130DBB2012B3AD1FB68022283F821209B
:103DD000FB6800229A63FB681B681A68FB681B6813
:103DE00022F001021A603B687A68B968F86800F04E
:103DF0006DFAFB68DB6A002B08D0FB681B681A6849
:103E0000FB681B6842F00E021A600FE0FB681B683B
:103E10001A68FB681B6822F004021A60FB681B68C2
:103E20001A68FB681B6842F00A021A60FB681B688C
:103E30001A68FB681B6842F001021A6005E0FB6823
:103E4000002283F820200223FB75FB7D18461837DB
:103E5000BD4680BD80B584B000AF78607B68DB6B09
:103E60001B68FB607B681B681B68BB607B681B6C06
:103E700004229A40FB681340002B00F0F180BB68DD
:103E800003F00403002B00F0EB807B681B681B68C9
:103E900003F02003002B07D17B681B681A687B683E
:103EA0001B6822F004021A607B681B681A465F4B8D
:103EB0009A4258D97B681B685D4A93424FD07B6811
:103EC0001B685C4A934248D07B681B685A4A9342FD
:103ED00040D07B681B68594A934238D07B681B6886
:103EE000574A934230D07B681B68564A934228D089
:103EF0007B681B684D4A934220D07B681B68524AFE
:103F0000934219D07B681B68504A934212D07B6859
:103F10001B684F4A93420AD07B681B684D4A934204
:103F200002D14FF480431BE04FF4802318E04FF49C
:103F3000806315E0402313E0042311E04FF0806319
:103F40000EE04FF480030BE04FF4802308E04FF4C1
:103F5000804305E04FF4806302E0402300E0042347
:103F60003D4A536057E07B681B68314A93424FD00B
:103F70007B681B682F4A934248D07B681B682E4A97
:103F8000934240D07B681B682C4A934238D07B68B0
:103F90001B682B4A934230D07B681B68294A9342A6
:103FA00028D07B681B68214A934220D07B681B681D
:103FB000254A934219D07B681B68244A934212D049
:103FC0007B681B68224A93420AD07B681B68214A9F
:103FD000934202D14FF480431BE04FF4802318E05A
:103FE0004FF4806315E0402313E0042311E04FF009
:103FF00080630EE04FF480030BE04FF4802308E071
:104000004FF4804305E04FF4806302E0402300E07A
:104010000423124A53607B68DB6A002B00F0368170
:104020007B68DB6A7868984730E100BF8000024017
:10403000080002401C0002403000024044000240E0
:10404000580002406C000240080402401C04024078
:1040500030040240440402400004024000000240D8
:104060007B681B6C02229A40FB681340002B00F017
:10407000DD80BB6803F00203002B00F0D7807B6873
:104080001B681B6803F02003002B0BD17B681B68A7
:104090001A687B681B6822F00A021A607B6801229A
:1040A00083F821207B681B681A467B4B9A4258D9BB
:1040B0007B681B68794A93424FD07B681B68784ABB
:1040C000934248D07B681B68764A934240D07B6815
:1040D0001B68754A934238D07B681B68734A9342C9
:1040E00030D07B681B68724A934228D07B681B687B
:1040F000694A934220D07B681B686E4A934219D06C
:104100007B681B686C4A934212D07B681B686B4AC1
:1041100093420AD07B681B68694A934202D14FF4EC
:1041200000531BE04FF4003318E04FF4007315E028
:10413000202313E0022311E04FF000730EE04FF450
:1041400000130BE04FF4003308E04FF4005305E098
:104150004FF4007302E0202300E00223594A536029
:1041600057E07B681B684D4A93424FD07B681B68C1
:104170004B4A934248D07B681B684A4A934240D0DE
:104180007B681B68484A934238D07B681B68474A63
:10419000934230D07B681B68454A934228D07B68A5
:1041A0001B683D4A934220D07B681B68414A93427A
:1041B00019D07B681B68404A934212D07B681B6809
:1041C0003E4A93420AD07B681B683D4A934202D123
:1041D0004FF400531BE04FF4003318E04FF400732A
:1041E00015E0202313E0022311E04FF000730EE0EE
:1041F0004FF400130BE04FF4003308E04FF400538A
:1042000005E04FF4007302E0202300E002232E4A71
:1042100053607B68002283F820207B689B6A002B18
:1042200034D07B689B6A786898472FE07B681B6C6A
:1042300008229A40FB681340002B28D0BB6803F08B
:104240000803002B23D07B681B681A687B681B68F7
:1042500022F00E021A607B681A6C7B68DB6B01210E
:1042600001FA02F25A607B6801229A637B6801229C
:1042700083F821207B68002283F820207B681B6B59
:10428000002B04D07B681B6B7868984700BF00BF89
:104290001037BD4680BD00BF8000024008000240CC
:1042A0001C0002403000024044000240580002401E
:1042B0006C000240080402401C040240300402402A
:1042C00044040240000402400000024080B485B073
:1042D00000AFF860B9607A603B60FB681A6CFB68FD
:1042E000DB6B012101FA02F25A60FB681B683A6835
:1042F0005A60FB685B68102B08D1FB681B687A6802
:104300009A60FB681B68BA68DA6007E0FB681B68A4
:10431000BA689A60FB681B687A68DA6000BF143775
:10432000BD4680BC7047000080B48BB000AF7860A1
:10433000396000237B6200233B6279E101227B6AC2
:1043400002FA03F3FB613B681B68FA691340BB6127
:10435000BA69FB699A4240F068813B685B68964A9B
:1043600093425ED0944A934275D8944A934258D06F
:10437000924A93426FD8924A934252D0904A9342C3
:1043800069D8904A93424CD08E4A934263D88E4A61
:10439000934246D08C4A93425DD8122B2AD8122BD6
:1043A00059D801A252F823F023440008FD43000825
:1043B0000F440008514400085744000857440008BF
:1043C0005744000857440008574400085744000861
:1043D0005744000857440008574400085744000851
:1043E0005744000857440008574400080544000893
:1043F00019440008754A934213D02CE03B68DB68EF
:104400003B6229E03B68DB6804333B6224E03B68A5
:10441000DB6808333B621FE03B68DB680C333B62C0
:104420001AE03B689B68002B02D104233B6213E037
:104430003B689B68012B05D108233B627B68FA69C6
:104440001A6109E008233B627B68FA695A6103E05C
:1044500000233B6200E000BFBB69FF2B01D87B68F3
:1044600001E07B6804337B61BB69FF2B02D87B6A68
:104470009B0002E07B6A083B9B003B617B691A68FA
:104480000F213B6901FA03F3DB431A40396A3B69A8
:1044900001FA03F31A437B691A603B685B6803F017
:1044A0008053002B00F0C180494B9B69484A43F080
:1044B00001039361464B9B6903F00103BB60BB683A
:1044C000444A7B6A9B08023352F82330FB607B6AC4
:1044D00003F003039B000F2202FA03F3DB43FA68A5
:1044E0001340FB607B683C4A93421FD07B683B4A89
:1044F000934219D07B683A4A934213D07B68394A79
:1045000093420DD07B68384A934207D07B68374A84
:10451000934201D105230AE0062308E0042306E0C4
:10452000032304E0022302E0012300E000237A6A6F
:1045300002F0030292009340FA681343FB6025499E
:104540007B6A9B080233FA6841F823203B685B686A
:1045500003F48013002B06D0254B9A682449BB69CD
:1045600013438B6006E0224B9A68BB69DB4320490A
:1045700013408B603B685B6803F40013002B06D08C
:104580001B4BDA681A49BB691343CB6006E0184B32
:10459000DA68BB69DB4316491340CB603B685B6854
:1045A00003F40033002B25D0114B5A681049BB6926
:1045B00013434B6025E000BF0000321000003110B3
:1045C0000000221000002110000012100000111045
:1045D000001002400000014000080140000C0140B2
:1045E000001001400014014000180140001C01406F
:1045F00000040140154B5A68BB69DB431349134063
:104600004B603B685B6803F48033002B06D00F4B94
:104610001A680E49BB6913430B6006E00B4B1A681E
:10462000BB69DB43094913400B607B6A01337B6242
:104630003B681A687B6A22FA03F3002B7FF47EAE94
:1046400000BF00BF2C37BD4680BC7047000401404E
:1046500080B483B000AF78600B467B8013467B70DC
:104660007B78002B03D07A887B681A6103E07B8813
:104670001A047B681A6100BF0C37BD4680BC7047C6
:1046800080B582B000AF0346FB80084B5A69FB88B7
:104690001340002B06D0054AFB885361FB8818465F
:1046A000FDF7C8F800BF0837BD4680BD00040140D3
:1046B00080B584B000AF78607B68002B01D1012306
:1046C000E8E07B6893F89132DBB2002B06D17B687F
:1046D000002283F8902278680AF0B6F97B680322FA
:1046E00083F891227B6800225A717B681B68184608
:1046F00003F0B8FA7B6818687B6804330ECB03F0CC
:104700008EFA0346002B05D07B68022283F89122A3
:104710000123BFE07B681B680021184603F0BCFA48
:104720000346002B05D07B68022283F891220123E7
:10473000B0E00023FB733EE0FA7B796813469B00F0
:104740001344DB000B44113301221A70FA7B7968A1
:1047500013469B001344DB000B441033FA7B1A70A2
:10476000FA7B796813469B001344DB000B44133338
:1047700000221A70FA7B796813469B001344DB0011
:104780000B44203300221A60FA7B796813469B00A1
:104790001344DB000B44243300221A60FB7B79684E
:1047A0005A1C13469B001344DB000B4400221A6082
:1047B000FB7B0133FB737B681B79FA7B9A42BBD38B
:1047C0000023FB7344E0FA7B796813469B00134493
:1047D000DB000B4403F2511300221A70FA7B796854
:1047E00013469B001344DB000B4403F5A873FA7BCC
:1047F0001A70FA7B796813469B001344DB000B4464
:1048000003F2531300221A70FA7B796813469B0057
:104810001344DB000B4403F5B07300221A60FA7BEB
:10482000796813469B001344DB000B4403F5B27315
:1048300000221A60FA7B796813469B001344DB0060
:104840000B4403F5B47300221A60FB7B0133FB7346
:104850007B681B79FA7B9A42B5D37B6818687B68C2
:1048600004330ECB03F024FA0346002B05D07B68FB
:10487000022283F8912201230CE07B6800225A7304
:104880007B68012283F891227B681B68184605F03B
:10489000A4FC002318461037BD4680BD80B582B009
:1048A00000AF78607B6893F89032012B01D102232E
:1048B00016E07B68012283F890227B681B6818460B
:1048C00003F0BAF9012178680AF013FB7B681B68D2
:1048D000184605F078FC7B68002283F890220023BC
:1048E00018460837BD4680BD80B588B000AF7860F7
:1048F0007B681B68184605F07AFCB861BB6903F455
:104900000043002B03D0786800F003FB19E1BB697A
:1049100003F48063002B13D07B681B68B3F844302A
:104920009AB27B681B6822F4806292B2A3F844209A
:1049300078680AF004F90021786800F005F900E1D0
:10494000BB6903F48043002B0CD07B681B68B3F871
:1049500044309AB27B681B6822F4804292B2A3F87A
:104960004420EEE0BB6903F40053002B0CD07B68BD
:104970001B68B3F844309AB27B681B6822F400527B
:1049800092B2A3F84420DCE0BB6903F48053002B0F
:1049900027D07B681B68B3F840309AB27B681B68ED
:1049A00022F0040292B2A3F840207B681B68B3F89F
:1049B00040309AB27B681B6822F0080292B2A3F8DA
:1049C000402078680AF0F4F87B681B68B3F844303C
:1049D0009AB27B681B6822F4805292B2A3F84420FA
:1049E000AFE0BB6903F40063002B00F08380002379
:1049F000FB7710E07B681B681A46FB7F9B001A441C
:104A0000FB7F128892B25B0020333B4423F8182CC2
:104A1000FB7F0133FB77FB7F072BEBD97B681B68A0
:104A2000B3F840309AB27B681B6842F0010292B240
:104A3000A3F840207B681B68B3F840309AB27B68CB
:104A40001B6822F0010292B2A3F8402000BF7B68ED
:104A50001B68B3F844309BB203F48063002BF6D09C
:104A60007B681B68B3F844309AB27B681B6822F4F9
:104A7000806292B2A3F844200023FB770FE0FB7F13
:104A80007A6812681146FA7F92000A445B0020336C
:104A90003B4433F8183C1380FB7F0133FB77FB7FEB
:104AA000072BECD97B681B68B3F840309AB27B685F
:104AB0001B6842F0080292B2A3F840207B681B6892
:104AC000B3F844309AB27B681B6822F4006292B259
:104AD000A3F844207B681B68B3F840309AB27B6827
:104AE0001B6842F0040292B2A3F8402078680AF0F2
:104AF00045F826E0BB6903F40073002B0FD07B68F8
:104B00001B68B3F844309AB27B681B6822F40072C9
:104B100092B2A3F8442078680AF003F811E0BB6968
:104B200003F48073002B0CD07B681B68B3F844300F
:104B30009AB27B681B6822F4807292B2A3F8442078
:104B400000BF2037BD4680BD80B582B000AF786021
:104B50000B46FB707B6893F89032012B01D1022346
:104B600012E07B68012283F890227B68FA785A73FE
:104B70007B681B68FA781146184605F011FB7B68C4
:104B8000002283F89022002318460837BD4680BDD6
:104B900080B584B000AF7860084611461A460346D7
:104BA000FB700B463B801346BB700023FB7297F9EA
:104BB0000330002B0EDAFB7803F0070213469B004C
:104BC0001344DB0010337A681344FB60FB68012256
:104BD0005A700EE0FB7803F0070213469B00134463
:104BE000DB0003F5A8737A681344FB60FB680022BE
:104BF0005A70FB7803F00703DAB2FB681A703A8840
:104C0000FB681A61FB68BA78DA70BB78022B02D1B4
:104C1000FB6800221A717B6893F89032012B01D156
:104C200002230EE07B68012283F890227B681B68D8
:104C3000F968184603F05AF87B68002283F890223E
:104C4000FB7A18461037BD4680BD80B584B000AFF2
:104C500078600B46FB7097F90330002B0EDAFB7877
:104C600003F0070213469B001344DB0010337A68FD
:104C70001344FB60FB6801225A700EE0FB7803F0DE
:104C8000070213469B001344DB0003F5A8737A6800
:104C90001344FB60FB6800225A70FB7803F00703A3
:104CA000DAB2FB681A707B6893F89032012B01D15D
:104CB00002230EE07B68012283F890227B681B6848
:104CC000F968184603F0D2FB7B68002283F8902233
:104CD000002318461037BD4680BD80B586B000AFB2
:104CE000F8607A603B600B46FB72FB7A03F00702C8
:104CF00013469B001344DB0003F5A873FA681344C2
:104D00007B617B697A685A617B693A689A617B69E1
:104D10000022DA617B6900225A70FB7A03F00703F4
:104D2000DAB27B691A70FB681B687969184603F070
:104D300089FD002318461837BD4680BD80B586B072
:104D400000AFF8607A603B600B46FB72FB7A03F0C1
:104D5000070213469B001344DB001033FA68134428
:104D60007B617B697A685A617B693A689A617B6981
:104D7000012283F824207B693A681A627B69002249
:104D8000DA617B6901225A70FB7A03F00703DAB219
:104D90007B691A70FB681B687969184603F052FD3D
:104DA000002318461837BD4680BD80B584B000AFDB
:104DB00078600B46FB70FB7803F007037A68127982
:104DC000934201D901234CE097F90330002B0EDA0E
:104DD000FB7803F0070213469B001344DB001033FB
:104DE0007A681344FB60FB6801225A700CE0FA7881
:104DF00013469B001344DB0003F5A8737A68134441
:104E0000FB60FB6800225A70FB6801229A70FB78F5
:104E100003F00703DAB2FB681A707B6893F89032EC
:104E2000012B01D102231CE07B68012283F8902230
:104E30007B681B68F968184605F0B5F8FB7803F045
:104E40000703002B08D17B681A687B6803F526737B
:104E50001946104605F0DAF97B68002283F89022A3
:104E6000002318461037BD4680BD80B584B000AF22
:104E700078600B46FB70FB7803F00F037A681279B9
:104E8000934201D9012340E097F90330002B0EDA59
:104E9000FB7803F0070213469B001344DB0010333A
:104EA0007A681344FB60FB6801225A700EE0FB78BD
:104EB00003F0070213469B001344DB0003F5A873BD
:104EC0007A681344FB60FB6800225A70FB6800227A
:104ED0009A70FB7803F00703DAB2FB681A707B68FC
:104EE00093F89032012B01D102230EE07B6801225E
:104EF00083F890227B681B68F968184605F0A3F8D0
:104F00007B68002283F89022002318461037BD46A4
:104F100080BD80B596B000AF7860BBE37B681B684E
:104F2000B3F84430A7F84E30B7F84E30DBB203F098
:104F30000F0387F84D3097F84D30002B40F0758106
:104F4000B7F84E3003F01003002B4ED17B681B687E
:104F50001B889BB223F4E14323F07003FB817B6841
:104F60001A68FB896FEA43436FEA53439BB213808D
:104F70007B6810337B657B681B68B3F850309BB24D
:104F80001A467B6D1B78DB00134402335B007A68A2
:104F90001268134403F580631B88C3F309027B6D19
:104FA000DA617B6D5A697B6DDB691A447B6D5A61EE
:104FB0000021786809F09BFD7B685B7BDBB2002BEE
:104FC00000F068837B6D9B69002B40F063837B68F6
:104FD0005B7BDBB263F07F03DAB27B681B68A3F80C
:104FE0004C207B6800225A7354E37B6803F5A87356
:104FF0007B657B681B681B88A7F84A30B7F84A3086
:1050000003F40063002B34D07B681B68B3F8503086
:105010009BB21A467B6D1B78DB00134406335B00A2
:105020007A681268134403F580631B88C3F309028E
:105030007B6DDA617B6818687B6803F526717B6D90
:10504000DA887B6DDB699BB205F030F97B681B6801
:105050001B889AB240F68F7313403B827B681B68B3
:105060003A8A42F0800292B21A80786809F012FD02
:1050700010E3B7F94A30002B80F20C837B681B6881
:105080001B889AB240F68F731340FB837B681B68C2
:10509000FA8B42F0800292B21A807B681B68B3F8E8
:1050A00050309BB21A467B6D1B78DB0013440633ED
:1050B0005B007A681268134403F580631B88C3F3AE
:1050C00009027B6DDA617B6DDB69002B19D07B6D8A
:1050D0005B69002B15D07B6818687B6D59697B6D07
:1050E000DA887B6DDB699BB205F0E0F87B6D5A696D
:1050F0007B6DDB691A447B6D5A610021786809F089
:10510000DBFC7B681B681B88A7F84A30B7F84A307D
:1051100003F40063002B40F0BD82B7F84A3003F47B
:105120004053B3F5405F00F0B5827B681B68BB61FC
:105130007B681B68B3F850309BB21A46BB691344B6
:10514000BB61BB6903F20C437B617B691B889BB22B
:10515000C3F309039AB27B691A807B6D1B693E2BEE
:105160001DD97B6D1B695B097B647B6D1B6903F03B
:105170001F03002B02D17B6C013B7B647B691B8886
:105180009AB27B6C9BB29B029BB213439BB26FEAB9
:1051900043436FEA53439AB27B691A8026E07B6DE2
:1051A0001B69002B0AD17B691B889BB26FEA4343C2
:1051B0006FEA53439AB27B691A8017E07B6D1B69D3
:1051C0005B087B647B6D1B6903F00103002B02D03D
:1051D0007B6C01337B647B691B889AB27B6C9BB2CE
:1051E0009B029BB213439AB27B691A807B681B684F
:1051F0001B889BB223F4804323F070037B827B8A5D
:1052000083F480537B827B8A83F400537B827B68A8
:105210001A687B8A43F07F4343F47F0343F40043DF
:1052200043F080039BB2138034E27B681B681A460C
:1052300097F84D309B0013441B88A7F84A30B7F904
:105240004A30002B80F2FC807B681B681A4697F876
:105250004D309B0013441B889AB240F68F73134065
:10526000A7F848307B681B681A4697F84D309B00BA
:105270001344B7F8482042F0800292B21A8097F89F
:105280004D2013469B001344DB0003F5A8737A6896
:1052900013447B657B6D1B7B002B25D17B681B68D2
:1052A000B3F850309BB21A467B6D1B78DB00134479
:1052B00006335B007A681268134403F580631B8829
:1052C000C3F30903A7F85030B7F85030002B00F0B3
:1052D00092807B6818687B6D59697B6DDA88B7F8B6
:1052E000503004F0E3FF86E07B6DDB78022B0AD1BF
:1052F000B7F84A301A46796D786800F0D9F9034654
:10530000A7F8503077E07B681B681A467B6D1B78E6
:105310009B0013441B889BB223F4E04323F07003EB
:10532000A7F852307B681B681A467B6D1B789B0080
:105330001A44B7F8523043F07F4343F47F0343F4F9
:10534000004343F0C0039BB213807B681B681A467E
:105350007B6D1B789B0013441B889BB203F4804336
:10536000002B24D07B681B68B3F850309BB21A46E0
:105370007B6D1B78DB00134402335B007A68126894
:10538000134403F580631B88C3F30903A7F8503067
:10539000B7F85030002B2ED07B6818687B6D5969A8
:1053A0007B6D1A89B7F8503004F080FF23E07B68EA
:1053B0001B68B3F850309BB21A467B6D1B78DB003C
:1053C000134406335B007A681268134403F5806364
:1053D0001B88C3F30903A7F85030B7F85030002BEF
:1053E00009D07B6818687B6D59697B6D5A89B7F85D
:1053F000503004F05BFF7B6DDA69B7F850301A4427
:105400007B6DDA617B6D5A69B7F850301A447B6D59
:105410005A617B6D9B69002B05D0B7F850207B6DDE
:105420001B699A4206D27B6D1B781946786809F091
:1054300043FB05E07B681B68796D184603F002FAB0
:10544000B7F84A3003F08003002B00F0238197F86F
:105450004D2013469B001344DB0010337A6813443D
:105460007B657B681B681A4697F84D309B00134498
:105470001B889BB223F4E14323F07003A7F842306A
:105480007B681B681A4697F84D309B001A44B7F8A2
:1054900042306FEA43436FEA53439BB213807B6D04
:1054A000DB78012B40F0A2807B6D00229A617B6D3E
:1054B0001B7B002B00F09380B7F84A3003F04003C9
:1054C000002B46D07B6D5B78002B26D17B681B6858
:1054D0007B627B681B68B3F850309BB21A467B6ACC
:1054E00013447B627B6D1B781A017B6A134403F2C1
:1054F00004433B623B6A1B889BB2C3F309039AB225
:105500003B6A1A803B6A1B889BB26FEA43436FEA8F
:1055100053439AB23B6A1A8061E07B6D5B78012B42
:105520005DD17B681B68FB627B681B68B3F85030F9
:105530009BB21A46FB6A1344FB627B6D1B781A010F
:10554000FB6A134403F20443BB62BB6A00221A8065
:1055500045E07B681B68FB637B6D5B78002B26D185
:105560007B681B687B637B681B68B3F850309BB219
:105570001A467B6B13447B637B6D1B781A017B6B34
:10558000134403F20C433B633B6B1B889BB2C3F396
:1055900009039AB23B6B1A803B6B1B889BB26FEA84
:1055A00043436FEA53439AB23B6B1A8017E07B6D1B
:1055B0005B78012B13D17B681B68B3F850309BB22A
:1055C0001A46FB6B1344FB637B6D1B781A01FB6B64
:1055D000134403F20C43BB63BB6B00221A807B6D48
:1055E0001B781946786809F082FA53E0B7F84A3018
:1055F00003F48073002B46D17B681B68B3F85030EE
:105600009BB21A467B6D1B78DB00134402335B00B0
:105610007A681268134403F580631B88C3F3090397
:10562000A7F840307B6D9A69B7F840309A4207D9A5
:105630007B6D9A69B7F84030D21A7B6D9A6102E0AF
:105640007B6D00229A617B6D9B69002B06D17B6D7F
:105650001B781946786809F04AFA1BE07B6D5A6995
:10566000B7F840301A447B6D5A617B6DDA69B7F840
:1056700040301A447B6DDA617B681B68796D18468F
:1056800003F0E0F806E0B7F84A301A46796D78681A
:1056900000F01BF97B681B68B3F844309BB21BB267
:1056A000002BFFF63BAC002318465837BD4680BDA3
:1056B00080B588B000AFF860B9601346FB80FB8806
:1056C00003F48043002B7ED0FB681B68B3F8503096
:1056D0009BB21A46BB681B78DB00134402335B00A5
:1056E000FA681268134403F580631B88C3F3090347
:1056F0007B83BB689A697B8B9A4206D3BB689A69A5
:105700007B8BD21ABB689A6102E0BB6800229A6167
:10571000BB689B69002B23D1FB681B681A46BB68DA
:105720001B789B0013441B889BB223F4804323F017
:1057300070033B833B8B83F400533B83FB681B6804
:105740001A46BB681B789B001A443B8B43F07F438F
:1057500043F47F0343F4004343F080039BB2138080
:10576000FB8803F04003002B1FD0FB681B681A4620
:10577000BB681B789B0013441B889BB223F4E04357
:1057800023F07003FB82FB681B681A46BB681B781A
:105790009B001A44FB8A43F07F4343F47F0343F4A6
:1057A000004343F0C0039BB213807B8B002B00F0BF
:1057B0008780FB681868BB685969BB681A897B8B4E
:1057C00004F074FD7CE0FB681B68B3F850309BB2BA
:1057D0001A46BB681B78DB00134406335B00FA688B
:1057E0001268134403F580631B88C3F309037B83AA
:1057F000BB689A697B8B9A4206D3BB689A697B8B9C
:10580000D21ABB689A6102E0BB6800229A61BB6849
:105810009B69002B23D1FB681B681A46BB681B7869
:105820009B0013441B889BB223F4804323F0700336
:10583000FB83FB8B83F40053FB83FB681B681A46D6
:10584000BB681B789B001A44FB8B43F07F4343F4F7
:105850007F0343F4004343F080039BB21380FB8833
:1058600003F04003002B1FD1FB681B681A46BB687E
:105870001B789B0013441B889BB223F4E04323F066
:105880007003BB83FB681B681A46BB681B789B00D0
:105890001A44BB8B43F07F4343F47F0343F400433C
:1058A00043F0C0039BB213807B8B002B08D0FB68B6
:1058B0001868BB685969BB685A897B8B04F0F6FC91
:1058C0007B8B18462037BD4680BD80B5A4B000AFA5
:1058D000F860B9601346FB80FB8803F04003002B9F
:1058E00000F0DD81FB681B68B3F850309BB21A46AC
:1058F000BB681B78DB00134402335B00FA68126854
:10590000134403F580631B88C3F30903A7F88630AB
:10591000BB689A69B7F886309A4207D9BB689A691A
:10592000B7F88630D21ABB689A6102E0BB680022E1
:105930009A61BB689B69002B40F0B980BB685B78BB
:10594000002B26D1FB681B68FB62FB681B68B3F861
:1059500050309BB21A46FB6A1344FB62BB681B784B
:105960001A01FB6A134403F20443BB62BB6A1B883F
:105970009BB2C3F309039AB2BB6A1A80BB6A1B8845
:105980009BB26FEA43436FEA53439AB2BB6A1A80F1
:105990001AE0BB685B78012B16D1FB681B687B6340
:1059A000FB681B68B3F850309BB21A467B6B1344FC
:1059B0007B63BB681B781A017B6B134403F20443BF
:1059C0003B633B6B00221A80FB681B687B62BB68F1
:1059D0005B78002B26D1FB681B68FB61FB681B68AA
:1059E000B3F850309BB21A46FB691344FB61BB68A5
:1059F0001B781A01FB69134403F20C43BB61BB69BA
:105A00001B889BB2C3F309039AB2BB691A80BB69B6
:105A10001B889BB26FEA43436FEA53439AB2BB6958
:105A20001A8017E0BB685B78012B13D1FB681B68F9
:105A3000B3F850309BB21A467B6A13447B62BB6852
:105A40001B781A017B6A134403F20C433B623B6AE6
:105A500000221A80BB681B781946F86809F047F8DD
:105A6000FB8803F48043002B00F0FC82FB681B687A
:105A70001A46BB681B789B0013441B889BB223F417
:105A8000E04323F07003FB82FB681B681A46BB6887
:105A90001B789B001A44FB8A43F07F4343F47F0347
:105AA00043F4404343F080039BB21380DAE2FB8867
:105AB00003F48043002B21D0FB681B681A46BB68A7
:105AC0001B789B0013441B889BB223F4E04323F014
:105AD0007003A7F88A30FB681B681A46BB681B78FE
